{
  "_format": "hh-sol-artifact-1",
  "contractName": "PaymentToken",
  "sourceName": "contracts/PaymentToken.sol",
  "abi": [
    {
      "inputs": [
        {
          "internalType": "string",
          "name": "name",
          "type": "string"
        },
        {
          "internalType": "string",
          "name": "symbol",
          "type": "string"
        },
        {
          "internalType": "uint8",
          "name": "decimals_",
          "type": "uint8"
        },
        {
          "internalType": "uint256",
          "name": "initialSupply",
          "type": "uint256"
        }
      ],
      "stateMutability": "nonpayable",
      "type": "constructor"
    },
    {
      "inputs": [
        {
          "internalType": "address",
          "name": "spender",
          "type": "address"
        },
        {
          "internalType": "uint256",
          "name": "allowance",
          "type": "uint256"
        },
        {
          "internalType": "uint256",
          "name": "needed",
          "type": "uint256"
        }
      ],
      "name": "ERC20InsufficientAllowance",
      "type": "error"
    },
    {
      "inputs": [
        {
          "internalType": "address",
          "name": "sender",
          "type": "address"
        },
        {
          "internalType": "uint256",
          "name": "balance",
          "type": "uint256"
        },
        {
          "internalType": "uint256",
          "name": "needed",
          "type": "uint256"
        }
      ],
      "name": "ERC20InsufficientBalance",
      "type": "error"
    },
    {
      "inputs": [
        {
          "internalType": "address",
          "name": "approver",
          "type": "address"
        }
      ],
      "name": "ERC20InvalidApprover",
      "type": "error"
    },
    {
      "inputs": [
        {
          "internalType": "address",
          "name": "receiver",
          "type": "address"
        }
      ],
      "name": "ERC20InvalidReceiver",
      "type": "error"
    },
    {
      "inputs": [
        {
          "internalType": "address",
          "name": "sender",
          "type": "address"
        }
      ],
      "name": "ERC20InvalidSender",
      "type": "error"
    },
    {
      "inputs": [
        {
          "internalType": "address",
          "name": "spender",
          "type": "address"
        }
      ],
      "name": "ERC20InvalidSpender",
      "type": "error"
    },
    {
      "inputs": [
        {
          "internalType": "address",
          "name": "owner",
          "type": "address"
        }
      ],
      "name": "OwnableInvalidOwner",
      "type": "error"
    },
    {
      "inputs": [
        {
          "internalType": "address",
          "name": "account",
          "type": "address"
        }
      ],
      "name": "OwnableUnauthorizedAccount",
      "type": "error"
    },
    {
      "anonymous": false,
      "inputs": [
        {
          "indexed": true,
          "internalType": "address",
          "name": "owner",
          "type": "address"
        },
        {
          "indexed": true,
          "internalType": "address",
          "name": "spender",
          "type": "address"
        },
        {
          "indexed": false,
          "internalType": "uint256",
          "name": "value",
          "type": "uint256"
        }
      ],
      "name": "Approval",
      "type": "event"
    },
    {
      "anonymous": false,
      "inputs": [
        {
          "indexed": true,
          "internalType": "address",
          "name": "previousOwner",
          "type": "address"
        },
        {
          "indexed": true,
          "internalType": "address",
          "name": "newOwner",
          "type": "address"
        }
      ],
      "name": "OwnershipTransferred",
      "type": "event"
    },
    {
      "anonymous": false,
      "inputs": [
        {
          "indexed": true,
          "internalType": "address",
          "name": "from",
          "type": "address"
        },
        {
          "indexed": true,
          "internalType": "address",
          "name": "to",
          "type": "address"
        },
        {
          "indexed": false,
          "internalType": "uint256",
          "name": "value",
          "type": "uint256"
        }
      ],
      "name": "Transfer",
      "type": "event"
    },
    {
      "inputs": [
        {
          "internalType": "address",
          "name": "owner",
          "type": "address"
        },
        {
          "internalType": "address",
          "name": "spender",
          "type": "address"
        }
      ],
      "name": "allowance",
      "outputs": [
        {
          "internalType": "uint256",
          "name": "",
          "type": "uint256"
        }
      ],
      "stateMutability": "view",
      "type": "function"
    },
    {
      "inputs": [
        {
          "internalType": "address",
          "name": "spender",
          "type": "address"
        },
        {
          "internalType": "uint256",
          "name": "value",
          "type": "uint256"
        }
      ],
      "name": "approve",
      "outputs": [
        {
          "internalType": "bool",
          "name": "",
          "type": "bool"
        }
      ],
      "stateMutability": "nonpayable",
      "type": "function"
    },
    {
      "inputs": [
        {
          "internalType": "address",
          "name": "account",
          "type": "address"
        }
      ],
      "name": "balanceOf",
      "outputs": [
        {
          "internalType": "uint256",
          "name": "",
          "type": "uint256"
        }
      ],
      "stateMutability": "view",
      "type": "function"
    },
    {
      "inputs": [
        {
          "internalType": "uint256",
          "name": "amount",
          "type": "uint256"
        }
      ],
      "name": "burn",
      "outputs": [],
      "stateMutability": "nonpayable",
      "type": "function"
    },
    {
      "inputs": [],
      "name": "decimals",
      "outputs": [
        {
          "internalType": "uint8",
          "name": "",
          "type": "uint8"
        }
      ],
      "stateMutability": "view",
      "type": "function"
    },
    {
      "inputs": [
        {
          "internalType": "address",
          "name": "to",
          "type": "address"
        },
        {
          "internalType": "uint256",
          "name": "amount",
          "type": "uint256"
        }
      ],
      "name": "mint",
      "outputs": [],
      "stateMutability": "nonpayable",
      "type": "function"
    },
    {
      "inputs": [],
      "name": "name",
      "outputs": [
        {
          "internalType": "string",
          "name": "",
          "type": "string"
        }
      ],
      "stateMutability": "view",
      "type": "function"
    },
    {
      "inputs": [],
      "name": "owner",
      "outputs": [
        {
          "internalType": "address",
          "name": "",
          "type": "address"
        }
      ],
      "stateMutability": "view",
      "type": "function"
    },
    {
      "inputs": [],
      "name": "renounceOwnership",
      "outputs": [],
      "stateMutability": "nonpayable",
      "type": "function"
    },
    {
      "inputs": [],
      "name": "symbol",
      "outputs": [
        {
          "internalType": "string",
          "name": "",
          "type": "string"
        }
      ],
      "stateMutability": "view",
      "type": "function"
    },
    {
      "inputs": [],
      "name": "totalSupply",
      "outputs": [
        {
          "internalType": "uint256",
          "name": "",
          "type": "uint256"
        }
      ],
      "stateMutability": "view",
      "type": "function"
    },
    {
      "inputs": [
        {
          "internalType": "address",
          "name": "to",
          "type": "address"
        },
        {
          "internalType": "uint256",
          "name": "value",
          "type": "uint256"
        }
      ],
      "name": "transfer",
      "outputs": [
        {
          "internalType": "bool",
          "name": "",
          "type": "bool"
        }
      ],
      "stateMutability": "nonpayable",
      "type": "function"
    },
    {
      "inputs": [
        {
          "internalType": "address",
          "name": "from",
          "type": "address"
        },
        {
          "internalType": "address",
          "name": "to",
          "type": "address"
        },
        {
          "internalType": "uint256",
          "name": "value",
          "type": "uint256"
        }
      ],
      "name": "transferFrom",
      "outputs": [
        {
          "internalType": "bool",
          "name": "",
          "type": "bool"
        }
      ],
      "stateMutability": "nonpayable",
      "type": "function"
    },
    {
      "inputs": [
        {
          "internalType": "address",
          "name": "newOwner",
          "type": "address"
        }
      ],
      "name": "transferOwnership",
      "outputs": [],
      "stateMutability": "nonpayable",
      "type": "function"
    }
  ],
  "bytecode": "0x608060405234801561001057600080fd5b50604051611f8e380380611f8e8339818101604052810190610032919061067b565b33848481600390816100449190610931565b5080600490816100549190610931565b505050600073ffffffffffffffffffffffffffffffffffffffff168173ffffffffffffffffffffffffffffffffffffffff16036100c95760006040517f1e4fbdf70000000000000000000000000000000000000000000000000000000081526004016100c09190610a44565b60405180910390fd5b6100d88161012460201b60201c565b5081600560146101000a81548160ff021916908360ff16021790555061011b3383600a6101059190610bc1565b836101109190610c0c565b6101ea60201b60201c565b50505050610ce3565b6000600560009054906101000a900473ffffffffffffffffffffffffffffffffffffffff16905081600560006101000a81548173ffffffffffffffffffffffffffffffffffffffff021916908373ffffffffffffffffffffffffffffffffffffffff1602179055508173ffffffffffffffffffffffffffffffffffffffff168173ffffffffffffffffffffffffffffffffffffffff167f8be0079c531659141344cd1fd0a4f28419497f9722a3daafe3b4186f6b6457e060405160405180910390a35050565b600073ffffffffffffffffffffffffffffffffffffffff168273ffffffffffffffffffffffffffffffffffffffff160361025c5760006040517fec442f050000000000000000000000000000000000000000000000000000000081526004016102539190610a44565b60405180910390fd5b61026e6000838361027260201b60201c565b5050565b600073ffffffffffffffffffffffffffffffffffffffff168373ffffffffffffffffffffffffffffffffffffffff16036102c45780600260008282546102b89190610c4e565b92505081905550610397565b60008060008573ffffffffffffffffffffffffffffffffffffffff1673ffffffffffffffffffffffffffffffffffffffff16815260200190815260200160002054905081811015610350578381836040517fe450d38c00000000000000000000000000000000000000000000000000000000815260040161034793929190610c91565b60405180910390fd5b8181036000808673ffffffffffffffffffffffffffffffffffffffff1673ffffffffffffffffffffffffffffffffffffffff16815260200190815260200160002081905550505b600073ffffffffffffffffffffffffffffffffffffffff168273ffffffffffffffffffffffffffffffffffffffff16036103e0578060026000828254039250508190555061042d565b806000808473ffffffffffffffffffffffffffffffffffffffff1673ffffffffffffffffffffffffffffffffffffffff168152602001908152602001600020600082825401925050819055505b8173ffffffffffffffffffffffffffffffffffffffff168373ffffffffffffffffffffffffffffffffffffffff167fddf252ad1be2c89b69c2b068fc378daa952ba7f163c4a11628f55a4df523b3ef8360405161048a9190610cc8565b60405180910390a3505050565b6000604051905090565b600080fd5b600080fd5b600080fd5b600080fd5b6000601f19601f8301169050919050565b7f4e487b7100000000000000000000000000000000000000000000000000000000600052604160045260246000fd5b6104fe826104b5565b810181811067ffffffffffffffff8211171561051d5761051c6104c6565b5b80604052505050565b6000610530610497565b905061053c82826104f5565b919050565b600067ffffffffffffffff82111561055c5761055b6104c6565b5b610565826104b5565b9050602081019050919050565b60005b83811015610590578082015181840152602081019050610575565b60008484015250505050565b60006105af6105aa84610541565b610526565b9050828152602081018484840111156105cb576105ca6104b0565b5b6105d6848285610572565b509392505050565b600082601f8301126105f3576105f26104ab565b5b815161060384826020860161059c565b91505092915050565b600060ff82169050919050565b6106228161060c565b811461062d57600080fd5b50565b60008151905061063f81610619565b92915050565b6000819050919050565b61065881610645565b811461066357600080fd5b50565b6000815190506106758161064f565b92915050565b60008060008060808587031215610695576106946104a1565b5b600085015167ffffffffffffffff8111156106b3576106b26104a6565b5b6106bf878288016105de565b945050602085015167ffffffffffffffff8111156106e0576106df6104a6565b5b6106ec878288016105de565b93505060406106fd87828801610630565b925050606061070e87828801610666565b91505092959194509250565b600081519050919050565b7f4e487b7100000000000000000000000000000000000000000000000000000000600052602260045260246000fd5b6000600282049050600182168061076c57607f821691505b60208210810361077f5761077e610725565b5b50919050565b60008190508160005260206000209050919050565b60006020601f8301049050919050565b600082821b905092915050565b6000600883026107e77fffffffffffffffffffffffffffffffffffffffffffffffffffffffffffffffff826107aa565b6107f186836107aa565b95508019841693508086168417925050509392505050565b6000819050919050565b600061082e61082961082484610645565b610809565b610645565b9050919050565b6000819050919050565b61084883610813565b61085c61085482610835565b8484546107b7565b825550505050565b600090565b610871610864565b61087c81848461083f565b505050565b5b818110156108a057610895600082610869565b600181019050610882565b5050565b601f8211156108e5576108b681610785565b6108bf8461079a565b810160208510156108ce578190505b6108e26108da8561079a565b830182610881565b50505b505050565b600082821c905092915050565b6000610908600019846008026108ea565b1980831691505092915050565b600061092183836108f7565b9150826002028217905092915050565b61093a8261071a565b67ffffffffffffffff811115610953576109526104c6565b5b61095d8254610754565b6109688282856108a4565b600060209050601f83116001811461099b5760008415610989578287015190505b6109938582610915565b8655506109fb565b601f1984166109a986610785565b60005b828110156109d1578489015182556001820191506020850194506020810190506109ac565b868310156109ee57848901516109ea601f8916826108f7565b8355505b6001600288020188555050505b505050505050565b600073ffffffffffffffffffffffffffffffffffffffff82169050919050565b6000610a2e82610a03565b9050919050565b610a3e81610a23565b82525050565b6000602082019050610a596000830184610a35565b92915050565b7f4e487b7100000000000000000000000000000000000000000000000000000000600052601160045260246000fd5b60008160011c9050919050565b6000808291508390505b6001851115610ae557808604811115610ac157610ac0610a5f565b5b6001851615610ad05780820291505b8081029050610ade85610a8e565b9450610aa5565b94509492505050565b600082610afe5760019050610bba565b81610b0c5760009050610bba565b8160018114610b225760028114610b2c57610b5b565b6001915050610bba565b60ff841115610b3e57610b3d610a5f565b5b8360020a915084821115610b5557610b54610a5f565b5b50610bba565b5060208310610133831016604e8410600b8410161715610b905782820a905083811115610b8b57610b8a610a5f565b5b610bba565b610b9d8484846001610a9b565b92509050818404811115610bb457610bb3610a5f565b5b81810290505b9392505050565b6000610bcc82610645565b9150610bd78361060c565b9250610c047fffffffffffffffffffffffffffffffffffffffffffffffffffffffffffffffff8484610aee565b905092915050565b6000610c1782610645565b9150610c2283610645565b9250828202610c3081610645565b91508282048414831517610c4757610c46610a5f565b5b5092915050565b6000610c5982610645565b9150610c6483610645565b9250828201905080821115610c7c57610c7b610a5f565b5b92915050565b610c8b81610645565b82525050565b6000606082019050610ca66000830186610a35565b610cb36020830185610c82565b610cc06040830184610c82565b949350505050565b6000602082019050610cdd6000830184610c82565b92915050565b61129c80610cf26000396000f3fe608060405234801561001057600080fd5b50600436106100ea5760003560e01c806370a082311161008c57806395d89b411161006657806395d89b4114610239578063a9059cbb14610257578063dd62ed3e14610287578063f2fde38b146102b7576100ea565b806370a08231146101e1578063715018a6146102115780638da5cb5b1461021b576100ea565b806323b872dd116100c857806323b872dd1461015b578063313ce5671461018b57806340c10f19146101a957806342966c68146101c5576100ea565b806306fdde03146100ef578063095ea7b31461010d57806318160ddd1461013d575b600080fd5b6100f76102d3565b6040516101049190610ec3565b60405180910390f35b61012760048036038101906101229190610f7e565b610365565b6040516101349190610fd9565b60405180910390f35b610145610388565b6040516101529190611003565b60405180910390f35b6101756004803603810190610170919061101e565b610392565b6040516101829190610fd9565b60405180910390f35b6101936103c1565b6040516101a0919061108d565b60405180910390f35b6101c360048036038101906101be9190610f7e565b6103d8565b005b6101df60048036038101906101da91906110a8565b6103ee565b005b6101fb60048036038101906101f691906110d5565b6103fb565b6040516102089190611003565b60405180910390f35b610219610443565b005b610223610457565b6040516102309190611111565b60405180910390f35b610241610481565b60405161024e9190610ec3565b60405180910390f35b610271600480360381019061026c9190610f7e565b610513565b60405161027e9190610fd9565b60405180910390f35b6102a1600480360381019061029c919061112c565b610536565b6040516102ae9190611003565b60405180910390f35b6102d160048036038101906102cc91906110d5565b6105bd565b005b6060600380546102e29061119b565b80601f016020809104026020016040519081016040528092919081815260200182805461030e9061119b565b801561035b5780601f106103305761010080835404028352916020019161035b565b820191906000526020600020905b81548152906001019060200180831161033e57829003601f168201915b5050505050905090565b600080610370610643565b905061037d81858561064b565b600191505092915050565b6000600254905090565b60008061039d610643565b90506103aa85828561065d565b6103b58585856106f2565b60019150509392505050565b6000600560149054906101000a900460ff16905090565b6103e06107e6565b6103ea828261086d565b5050565b6103f833826108ef565b50565b60008060008373ffffffffffffffffffffffffffffffffffffffff1673ffffffffffffffffffffffffffffffffffffffff168152602001908152602001600020549050919050565b61044b6107e6565b6104556000610971565b565b6000600560009054906101000a900473ffffffffffffffffffffffffffffffffffffffff16905090565b6060600480546104909061119b565b80601f01602080910402602001604051908101604052809291908181526020018280546104bc9061119b565b80156105095780601f106104de57610100808354040283529160200191610509565b820191906000526020600020905b8154815290600101906020018083116104ec57829003601f168201915b5050505050905090565b60008061051e610643565b905061052b8185856106f2565b600191505092915050565b6000600160008473ffffffffffffffffffffffffffffffffffffffff1673ffffffffffffffffffffffffffffffffffffffff16815260200190815260200160002060008373ffffffffffffffffffffffffffffffffffffffff1673ffffffffffffffffffffffffffffffffffffffff16815260200190815260200160002054905092915050565b6105c56107e6565b600073ffffffffffffffffffffffffffffffffffffffff168173ffffffffffffffffffffffffffffffffffffffff16036106375760006040517f1e4fbdf700000000000000000000000000000000000000000000000000000000815260040161062e9190611111565b60405180910390fd5b61064081610971565b50565b600033905090565b6106588383836001610a37565b505050565b60006106698484610536565b90507fffffffffffffffffffffffffffffffffffffffffffffffffffffffffffffffff8110156106ec57818110156106dc578281836040517ffb8f41b20000000000000000000000000000000000000000000000000000000081526004016106d3939291906111cc565b60405180910390fd5b6106eb84848484036000610a37565b5b50505050565b600073ffffffffffffffffffffffffffffffffffffffff168373ffffffffffffffffffffffffffffffffffffffff16036107645760006040517f96c6fd1e00000000000000000000000000000000000000000000000000000000815260040161075b9190611111565b60405180910390fd5b600073ffffffffffffffffffffffffffffffffffffffff168273ffffffffffffffffffffffffffffffffffffffff16036107d65760006040517fec442f050000000000000000000000000000000000000000000000000000000081526004016107cd9190611111565b60405180910390fd5b6107e1838383610c0e565b505050565b6107ee610643565b73ffffffffffffffffffffffffffffffffffffffff1661080c610457565b73ffffffffffffffffffffffffffffffffffffffff161461086b5761082f610643565b6040517f118cdaa70000000000000000000000000000000000000000000000000000000081526004016108629190611111565b60405180910390fd5b565b600073ffffffffffffffffffffffffffffffffffffffff168273ffffffffffffffffffffffffffffffffffffffff16036108df5760006040517fec442f050000000000000000000000000000000000000000000000000000000081526004016108d69190611111565b60405180910390fd5b6108eb60008383610c0e565b5050565b600073ffffffffffffffffffffffffffffffffffffffff168273ffffffffffffffffffffffffffffffffffffffff16036109615760006040517f96c6fd1e0000000000000000000000000000000000000000000000000000000081526004016109589190611111565b60405180910390fd5b61096d82600083610c0e565b5050565b6000600560009054906101000a900473ffffffffffffffffffffffffffffffffffffffff16905081600560006101000a81548173ffffffffffffffffffffffffffffffffffffffff021916908373ffffffffffffffffffffffffffffffffffffffff1602179055508173ffffffffffffffffffffffffffffffffffffffff168173ffffffffffffffffffffffffffffffffffffffff167f8be0079c531659141344cd1fd0a4f28419497f9722a3daafe3b4186f6b6457e060405160405180910390a35050565b600073ffffffffffffffffffffffffffffffffffffffff168473ffffffffffffffffffffffffffffffffffffffff1603610aa95760006040517fe602df05000000000000000000000000000000000000000000000000000000008152600401610aa09190611111565b60405180910390fd5b600073ffffffffffffffffffffffffffffffffffffffff168373ffffffffffffffffffffffffffffffffffffffff1603610b1b5760006040517f94280d62000000000000000000000000000000000000000000000000000000008152600401610b129190611111565b60405180910390fd5b81600160008673ffffffffffffffffffffffffffffffffffffffff1673ffffffffffffffffffffffffffffffffffffffff16815260200190815260200160002060008573ffffffffffffffffffffffffffffffffffffffff1673ffffffffffffffffffffffffffffffffffffffff168152602001908152602001600020819055508015610c08578273ffffffffffffffffffffffffffffffffffffffff168473ffffffffffffffffffffffffffffffffffffffff167f8c5be1e5ebec7d5bd14f71427d1e84f3dd0314c0f7b2291e5b200ac8c7c3b92584604051610bff9190611003565b60405180910390a35b50505050565b600073ffffffffffffffffffffffffffffffffffffffff168373ffffffffffffffffffffffffffffffffffffffff1603610c60578060026000828254610c549190611232565b92505081905550610d33565b60008060008573ffffffffffffffffffffffffffffffffffffffff1673ffffffffffffffffffffffffffffffffffffffff16815260200190815260200160002054905081811015610cec578381836040517fe450d38c000000000000000000000000000000000000000000000000000000008152600401610ce3939291906111cc565b60405180910390fd5b8181036000808673ffffffffffffffffffffffffffffffffffffffff1673ffffffffffffffffffffffffffffffffffffffff16815260200190815260200160002081905550505b600073ffffffffffffffffffffffffffffffffffffffff168273ffffffffffffffffffffffffffffffffffffffff1603610d7c5780600260008282540392505081905550610dc9565b806000808473ffffffffffffffffffffffffffffffffffffffff1673ffffffffffffffffffffffffffffffffffffffff168152602001908152602001600020600082825401925050819055505b8173ffffffffffffffffffffffffffffffffffffffff168373ffffffffffffffffffffffffffffffffffffffff167fddf252ad1be2c89b69c2b068fc378daa952ba7f163c4a11628f55a4df523b3ef83604051610e269190611003565b60405180910390a3505050565b600081519050919050565b600082825260208201905092915050565b60005b83811015610e6d578082015181840152602081019050610e52565b60008484015250505050565b6000601f19601f8301169050919050565b6000610e9582610e33565b610e9f8185610e3e565b9350610eaf818560208601610e4f565b610eb881610e79565b840191505092915050565b60006020820190508181036000830152610edd8184610e8a565b905092915050565b600080fd5b600073ffffffffffffffffffffffffffffffffffffffff82169050919050565b6000610f1582610eea565b9050919050565b610f2581610f0a565b8114610f3057600080fd5b50565b600081359050610f4281610f1c565b92915050565b6000819050919050565b610f5b81610f48565b8114610f6657600080fd5b50565b600081359050610f7881610f52565b92915050565b60008060408385031215610f9557610f94610ee5565b5b6000610fa385828601610f33565b9250506020610fb485828601610f69565b9150509250929050565b60008115159050919050565b610fd381610fbe565b82525050565b6000602082019050610fee6000830184610fca565b92915050565b610ffd81610f48565b82525050565b60006020820190506110186000830184610ff4565b92915050565b60008060006060848603121561103757611036610ee5565b5b600061104586828701610f33565b935050602061105686828701610f33565b925050604061106786828701610f69565b9150509250925092565b600060ff82169050919050565b61108781611071565b82525050565b60006020820190506110a2600083018461107e565b92915050565b6000602082840312156110be576110bd610ee5565b5b60006110cc84828501610f69565b91505092915050565b6000602082840312156110eb576110ea610ee5565b5b60006110f984828501610f33565b91505092915050565b61110b81610f0a565b82525050565b60006020820190506111266000830184611102565b92915050565b6000806040838503121561114357611142610ee5565b5b600061115185828601610f33565b925050602061116285828601610f33565b9150509250929050565b7f4e487b7100000000000000000000000000000000000000000000000000000000600052602260045260246000fd5b600060028204905060018216806111b357607f821691505b6020821081036111c6576111c561116c565b5b50919050565b60006060820190506111e16000830186611102565b6111ee6020830185610ff4565b6111fb6040830184610ff4565b949350505050565b7f4e487b7100000000000000000000000000000000000000000000000000000000600052601160045260246000fd5b600061123d82610f48565b915061124883610f48565b92508282019050808211156112605761125f611203565b5b9291505056fea2646970667358221220bc73ffc807fab1950f4a45ec8264c1d942fd6e97026a3eeb16bf0117128e8b4c64736f6c634300081c0033",
  "linkReferences": {},
  "deployedLinkReferences": {}
}