{
  "_format": "hh-sol-artifact-1",
  "contractName": "PaymentGateway",
  "sourceName": "contracts/PaymentGateway.sol",
  "abi": [
    {
      "anonymous": false,
      "inputs": [
        {
          "indexed": true,
          "internalType": "bytes32",
          "name": "id",
          "type": "bytes32"
        },
        {
          "indexed": true,
          "internalType": "address",
          "name": "payer",
          "type": "address"
        },
        {
          "indexed": true,
          "internalType": "address",
          "name": "token",
          "type": "address"
        },
        {
          "indexed": false,
          "internalType": "address",
          "name": "to",
          "type": "address"
        },
        {
          "indexed": false,
          "internalType": "uint256",
          "name": "amount",
          "type": "uint256"
        },
        {
          "indexed": false,
          "internalType": "string",
          "name": "memo",
          "type": "string"
        }
      ],
      "name": "PaymentInitiated",
      "type": "event"
    },
    {
      "inputs": [
        {
          "internalType": "address",
          "name": "token",
          "type": "address"
        },
        {
          "internalType": "address",
          "name": "to",
          "type": "address"
        },
        {
          "internalType": "uint256",
          "name": "amount",
          "type": "uint256"
        },
        {
          "internalType": "string",
          "name": "memo",
          "type": "string"
        }
      ],
      "name": "initiatePayment",
      "outputs": [
        {
          "internalType": "bytes32",
          "name": "",
          "type": "bytes32"
        }
      ],
      "stateMutability": "nonpayable",
      "type": "function"
    }
  ],
  "bytecode": "0x6080604052348015600f57600080fd5b506108768061001f6000396000f3fe608060405234801561001057600080fd5b506004361061002b5760003560e01c806390692af114610030575b600080fd5b61004a60048036038101906100459190610398565b610060565b6040516100579190610439565b60405180910390f35b60008073ffffffffffffffffffffffffffffffffffffffff168573ffffffffffffffffffffffffffffffffffffffff16036100d0576040517f08c379a00000000000000000000000000000000000000000000000000000000081526004016100c7906104b1565b60405180910390fd5b60008411610113576040517f08c379a000000000000000000000000000000000000000000000000000000000815260040161010a9061051d565b60405180910390fd5b8573ffffffffffffffffffffffffffffffffffffffff166323b872dd3387876040518463ffffffff1660e01b81526004016101509392919061055b565b6020604051808303816000875af115801561016f573d6000803e3d6000fd5b505050506040513d601f19601f8201168201806040525081019061019391906105ca565b6101d2576040517f08c379a00000000000000000000000000000000000000000000000000000000081526004016101c990610643565b60405180910390fd5b600046423388886000808154809291906101eb90610692565b9190505560405160200161020496959493929190610743565b6040516020818303038152906040528051906020012090508673ffffffffffffffffffffffffffffffffffffffff163373ffffffffffffffffffffffffffffffffffffffff16827ff65afcc74b9489578abba31837c555c7f08a02db00782c14a14c3a2ea7d308a2898989896040516102809493929190610800565b60405180910390a48091505095945050505050565b600080fd5b600080fd5b600073ffffffffffffffffffffffffffffffffffffffff82169050919050565b60006102ca8261029f565b9050919050565b6102da816102bf565b81146102e557600080fd5b50565b6000813590506102f7816102d1565b92915050565b6000819050919050565b610310816102fd565b811461031b57600080fd5b50565b60008135905061032d81610307565b92915050565b600080fd5b600080fd5b600080fd5b60008083601f84011261035857610357610333565b5b8235905067ffffffffffffffff81111561037557610374610338565b5b6020830191508360018202830111156103915761039061033d565b5b9250929050565b6000806000806000608086880312156103b4576103b3610295565b5b60006103c2888289016102e8565b95505060206103d3888289016102e8565b94505060406103e48882890161031e565b935050606086013567ffffffffffffffff8111156104055761040461029a565b5b61041188828901610342565b92509250509295509295909350565b6000819050919050565b61043381610420565b82525050565b600060208201905061044e600083018461042a565b92915050565b600082825260208201905092915050565b7f62616420726563697069656e7400000000000000000000000000000000000000600082015250565b600061049b600d83610454565b91506104a682610465565b602082019050919050565b600060208201905081810360008301526104ca8161048e565b9050919050565b7f616d6f756e743d30000000000000000000000000000000000000000000000000600082015250565b6000610507600883610454565b9150610512826104d1565b602082019050919050565b60006020820190508181036000830152610536816104fa565b9050919050565b610546816102bf565b82525050565b610555816102fd565b82525050565b6000606082019050610570600083018661053d565b61057d602083018561053d565b61058a604083018461054c565b949350505050565b60008115159050919050565b6105a781610592565b81146105b257600080fd5b50565b6000815190506105c48161059e565b92915050565b6000602082840312156105e0576105df610295565b5b60006105ee848285016105b5565b91505092915050565b7f7472616e7366657246726f6d206661696c656400000000000000000000000000600082015250565b600061062d601383610454565b9150610638826105f7565b602082019050919050565b6000602082019050818103600083015261065c81610620565b9050919050565b7f4e487b7100000000000000000000000000000000000000000000000000000000600052601160045260246000fd5b600061069d826102fd565b91507fffffffffffffffffffffffffffffffffffffffffffffffffffffffffffffffff82036106cf576106ce610663565b5b600182019050919050565b6000819050919050565b6106f56106f0826102fd565b6106da565b82525050565b60008160601b9050919050565b6000610713826106fb565b9050919050565b600061072582610708565b9050919050565b61073d610738826102bf565b61071a565b82525050565b600061074f82896106e4565b60208201915061075f82886106e4565b60208201915061076f828761072c565b60148201915061077f828661072c565b60148201915061078f82856106e4565b60208201915061079f82846106e4565b602082019150819050979650505050505050565b82818337600083830152505050565b6000601f19601f8301169050919050565b60006107df8385610454565b93506107ec8385846107b3565b6107f5836107c2565b840190509392505050565b6000606082019050610815600083018761053d565b610822602083018661054c565b81810360408301526108358184866107d3565b90509594505050505056fea2646970667358221220b9f7dd49ff6827862673f6e160dcee64c6a45a9b240b9c4ba5671485c484eb4a64736f6c634300081c0033",
  "linkReferences": {},
  "deployedLinkReferences": {}
}